:100000000C9434000C943E000C943E000C943E0082
:100010000C943E000C943E000C943E000C943E0068
:100020000C943E000C943E000C943E000C943E0058
:100030000C943E000C943E000C943E000C943E0048
:100040000C943E000C943E000C943E000C943E0038
:100050000C943E000C943E000C943E000C943E0028
:100060000C943E000C943E0011241FBECFEFD8E04C
:10007000DEBFCDBF0E9440000C9467000C940000CE
:1000800084B18FEF84B980918000826C809380006E
:10009000809181008961809381008FE19EE490933B
:1000A0008700809386008091860090918700885E0B
:1000B000934090938900809388002FEF81EE94E025
:1000C000215080409040E1F700C00000ECCFF89450
:0200D000FFCF60
:00000001FF
